{
  "_format": "hh-sol-artifact-1",
  "contractName": "ARNSeedSale",
  "sourceName": "contracts/ARNSeedSale.sol",
  "abi": [
    {
      "inputs": [
        {
          "internalType": "address payable",
          "name": "_deposit",
          "type": "address"
        }
      ],
      "stateMutability": "nonpayable",
      "type": "constructor"
    },
    {
      "anonymous": false,
      "inputs": [
        {
          "indexed": true,
          "internalType": "address",
          "name": "previousOwner",
          "type": "address"
        },
        {
          "indexed": true,
          "internalType": "address",
          "name": "newOwner",
          "type": "address"
        }
      ],
      "name": "OwnershipPulled",
      "type": "event"
    },
    {
      "anonymous": false,
      "inputs": [
        {
          "indexed": true,
          "internalType": "address",
          "name": "previousOwner",
          "type": "address"
        },
        {
          "indexed": true,
          "internalType": "address",
          "name": "newOwner",
          "type": "address"
        }
      ],
      "name": "OwnershipPushed",
      "type": "event"
    },
    {
      "anonymous": false,
      "inputs": [
        {
          "indexed": false,
          "internalType": "address",
          "name": "investor",
          "type": "address"
        },
        {
          "indexed": false,
          "internalType": "uint256",
          "name": "value",
          "type": "uint256"
        }
      ],
      "name": "SeedSale",
      "type": "event"
    },
    {
      "inputs": [],
      "name": "depositAddress",
      "outputs": [
        {
          "internalType": "address payable",
          "name": "",
          "type": "address"
        }
      ],
      "stateMutability": "view",
      "type": "function"
    },
    {
      "inputs": [],
      "name": "founder",
      "outputs": [
        {
          "internalType": "address",
          "name": "",
          "type": "address"
        }
      ],
      "stateMutability": "view",
      "type": "function"
    },
    {
      "inputs": [],
      "name": "getSeedSaleCurrentState",
      "outputs": [
        {
          "internalType": "enum ARNSeedSale.State",
          "name": "",
          "type": "uint8"
        }
      ],
      "stateMutability": "view",
      "type": "function"
    },
    {
      "inputs": [],
      "name": "haltseedSale",
      "outputs": [],
      "stateMutability": "nonpayable",
      "type": "function"
    },
    {
      "inputs": [
        {
          "internalType": "address",
          "name": "",
          "type": "address"
        }
      ],
      "name": "investments",
      "outputs": [
        {
          "internalType": "uint256",
          "name": "",
          "type": "uint256"
        }
      ],
      "stateMutability": "view",
      "type": "function"
    },
    {
      "inputs": [],
      "name": "maxInvestment",
      "outputs": [
        {
          "internalType": "uint256",
          "name": "",
          "type": "uint256"
        }
      ],
      "stateMutability": "view",
      "type": "function"
    },
    {
      "inputs": [],
      "name": "minInvestment",
      "outputs": [
        {
          "internalType": "uint256",
          "name": "",
          "type": "uint256"
        }
      ],
      "stateMutability": "view",
      "type": "function"
    },
    {
      "inputs": [],
      "name": "owner",
      "outputs": [
        {
          "internalType": "address",
          "name": "",
          "type": "address"
        }
      ],
      "stateMutability": "view",
      "type": "function"
    },
    {
      "inputs": [],
      "name": "pullManagement",
      "outputs": [],
      "stateMutability": "nonpayable",
      "type": "function"
    },
    {
      "inputs": [
        {
          "internalType": "address",
          "name": "newOwner_",
          "type": "address"
        }
      ],
      "name": "pushManagement",
      "outputs": [],
      "stateMutability": "nonpayable",
      "type": "function"
    },
    {
      "inputs": [],
      "name": "raisedAmount",
      "outputs": [
        {
          "internalType": "uint256",
          "name": "",
          "type": "uint256"
        }
      ],
      "stateMutability": "view",
      "type": "function"
    },
    {
      "inputs": [],
      "name": "renounceManagement",
      "outputs": [],
      "stateMutability": "nonpayable",
      "type": "function"
    },
    {
      "inputs": [],
      "name": "seedHardCap",
      "outputs": [
        {
          "internalType": "uint256",
          "name": "",
          "type": "uint256"
        }
      ],
      "stateMutability": "view",
      "type": "function"
    },
    {
      "inputs": [],
      "name": "seedSale",
      "outputs": [],
      "stateMutability": "payable",
      "type": "function"
    },
    {
      "inputs": [],
      "name": "seedSaleCount",
      "outputs": [
        {
          "internalType": "uint256",
          "name": "",
          "type": "uint256"
        }
      ],
      "stateMutability": "view",
      "type": "function"
    },
    {
      "inputs": [],
      "name": "seedSaleEnd",
      "outputs": [
        {
          "internalType": "uint256",
          "name": "",
          "type": "uint256"
        }
      ],
      "stateMutability": "view",
      "type": "function"
    },
    {
      "inputs": [],
      "name": "seedSaleStart",
      "outputs": [
        {
          "internalType": "uint256",
          "name": "",
          "type": "uint256"
        }
      ],
      "stateMutability": "view",
      "type": "function"
    },
    {
      "inputs": [],
      "name": "seedSaleState",
      "outputs": [
        {
          "internalType": "enum ARNSeedSale.State",
          "name": "",
          "type": "uint8"
        }
      ],
      "stateMutability": "view",
      "type": "function"
    },
    {
      "inputs": [],
      "name": "seedSalehardCap",
      "outputs": [
        {
          "internalType": "uint256",
          "name": "",
          "type": "uint256"
        }
      ],
      "stateMutability": "view",
      "type": "function"
    },
    {
      "inputs": [],
      "name": "seedSalesoftCap",
      "outputs": [
        {
          "internalType": "uint256",
          "name": "",
          "type": "uint256"
        }
      ],
      "stateMutability": "view",
      "type": "function"
    },
    {
      "inputs": [
        {
          "internalType": "uint256",
          "name": "timetoend",
          "type": "uint256"
        }
      ],
      "name": "setSeedSaleEnd",
      "outputs": [],
      "stateMutability": "nonpayable",
      "type": "function"
    },
    {
      "inputs": [],
      "name": "setSeedSaleStart",
      "outputs": [],
      "stateMutability": "nonpayable",
      "type": "function"
    },
    {
      "inputs": [
        {
          "internalType": "address",
          "name": "",
          "type": "address"
        }
      ],
      "name": "tokenbalances",
      "outputs": [
        {
          "internalType": "uint256",
          "name": "",
          "type": "uint256"
        }
      ],
      "stateMutability": "view",
      "type": "function"
    },
    {
      "inputs": [
        {
          "internalType": "address",
          "name": "",
          "type": "address"
        }
      ],
      "name": "userShare",
      "outputs": [
        {
          "internalType": "uint256",
          "name": "",
          "type": "uint256"
        }
      ],
      "stateMutability": "view",
      "type": "function"
    }
  ],
  "bytecode": "0x6080604052650299e548b80060035562256250600555676124fee993bc00006006556201e848600755600060085560006009556000600a55670de0b6b3a7640000600b55662386f26fc10000600c553480156200005b57600080fd5b5060405162001910380380620019108339818101604052810190620000819190620002c5565b336000806101000a81548173ffffffffffffffffffffffffffffffffffffffff021916908373ffffffffffffffffffffffffffffffffffffffff16021790555060008054906101000a900473ffffffffffffffffffffffffffffffffffffffff1673ffffffffffffffffffffffffffffffffffffffff16600073ffffffffffffffffffffffffffffffffffffffff167fea8258f2d9ddb679928cf34b78cf645b7feda9acc828e4dd82d014eaae270eba60405160405180910390a380600d60006101000a81548173ffffffffffffffffffffffffffffffffffffffff021916908373ffffffffffffffffffffffffffffffffffffffff16021790555033600260006101000a81548173ffffffffffffffffffffffffffffffffffffffff021916908373ffffffffffffffffffffffffffffffffffffffff1602179055506000601260006101000a81548160ff02191690836003811115620001e757620001e6620002f7565b5b021790555060055460106000600260009054906101000a900473ffffffffffffffffffffffffffffffffffffffff1673ffffffffffffffffffffffffffffffffffffffff1673ffffffffffffffffffffffffffffffffffffffff168152602001908152602001600020819055505062000326565b600080fd5b600073ffffffffffffffffffffffffffffffffffffffff82169050919050565b60006200028d8262000260565b9050919050565b6200029f8162000280565b8114620002ab57600080fd5b50565b600081519050620002bf8162000294565b92915050565b600060208284031215620002de57620002dd6200025b565b5b6000620002ee84828501620002ae565b91505092915050565b7f4e487b7100000000000000000000000000000000000000000000000000000000600052602160045260246000fd5b6115da80620003366000396000f3fe60806040526004361061014a5760003560e01c80637f9e96b5116100b6578063c59ee1dc1161006f578063c59ee1dc1461042a578063cef3bd7f14610455578063deb0415614610480578063ed99c1e8146104ab578063f15766aa146104d6578063f23add6b146104ed5761014a565b80637f9e96b5146103165780638532e544146103415780638ac2c6801461036c5780638da5cb5b1461039757806396b98862146103c2578063abc08394146103ff5761014a565b806348a5e4511161010857806348a5e451146102065780634d853ee51461022f5780635a96ac0a1461025a5780635f58d1b4146102715780636bb9e8871461029c578063789ef0e0146102d95761014a565b80622e13161461014f578063089208d81461017a5780631d84f387146101915780631e329d5d146101a857806328f833b7146101b257806346f68ee9146101dd575b600080fd5b34801561015b57600080fd5b50610164610518565b6040516101719190611069565b60405180910390f35b34801561018657600080fd5b5061018f61051e565b005b34801561019d57600080fd5b506101a66106ac565b005b6101b0610769565b005b3480156101be57600080fd5b506101c7610a00565b6040516101d491906110c5565b60405180910390f35b3480156101e957600080fd5b5061020460048036038101906101ff9190611123565b610a26565b005b34801561021257600080fd5b5061022d6004803603810190610228919061117c565b610b72565b005b34801561023b57600080fd5b50610244610c5e565b60405161025191906111b8565b60405180910390f35b34801561026657600080fd5b5061026f610c84565b005b34801561027d57600080fd5b50610286610e56565b6040516102939190611069565b60405180910390f35b3480156102a857600080fd5b506102c360048036038101906102be9190611123565b610e5c565b6040516102d09190611069565b60405180910390f35b3480156102e557600080fd5b5061030060048036038101906102fb9190611123565b610e74565b60405161030d9190611069565b60405180910390f35b34801561032257600080fd5b5061032b610e8c565b6040516103389190611069565b60405180910390f35b34801561034d57600080fd5b50610356610e92565b6040516103639190611069565b60405180910390f35b34801561037857600080fd5b50610381610e98565b60405161038e9190611069565b60405180910390f35b3480156103a357600080fd5b506103ac610e9e565b6040516103b991906111b8565b60405180910390f35b3480156103ce57600080fd5b506103e960048036038101906103e49190611123565b610ec7565b6040516103f69190611069565b60405180910390f35b34801561040b57600080fd5b50610414610edf565b6040516104219190611069565b60405180910390f35b34801561043657600080fd5b5061043f610ee5565b60405161044c9190611069565b60405180910390f35b34801561046157600080fd5b5061046a610eeb565b604051610477919061124a565b60405180910390f35b34801561048c57600080fd5b50610495610f6d565b6040516104a2919061124a565b60405180910390f35b3480156104b757600080fd5b506104c0610f80565b6040516104cd9190611069565b60405180910390f35b3480156104e257600080fd5b506104eb610f86565b005b3480156104f957600080fd5b5061050261104a565b60405161050f9190611069565b60405180910390f35b600b5481565b3373ffffffffffffffffffffffffffffffffffffffff1660008054906101000a900473ffffffffffffffffffffffffffffffffffffffff1673ffffffffffffffffffffffffffffffffffffffff16146105ac576040517f08c379a00000000000000000000000000000000000000000000000000000000081526004016105a3906112c2565b60405180910390fd5b600073ffffffffffffffffffffffffffffffffffffffff1660008054906101000a900473ffffffffffffffffffffffffffffffffffffffff1673ffffffffffffffffffffffffffffffffffffffff167faa151555690c956fc3ea32f106bb9f119b5237a061eaa8557cff3e51e3792c8d60405160405180910390a360008060006101000a81548173ffffffffffffffffffffffffffffffffffffffff021916908373ffffffffffffffffffffffffffffffffffffffff1602179055506000600160006101000a81548173ffffffffffffffffffffffffffffffffffffffff021916908373ffffffffffffffffffffffffffffffffffffffff160217905550565b600260009054906101000a900473ffffffffffffffffffffffffffffffffffffffff1673ffffffffffffffffffffffffffffffffffffffff163373ffffffffffffffffffffffffffffffffffffffff161461073c576040517f08c379a00000000000000000000000000000000000000000000000000000000081526004016107339061132e565b60405180910390fd5b6003601260006101000a81548160ff02191690836003811115610762576107616111d3565b5b0217905550565b6001600381111561077d5761077c6111d3565b5b601260009054906101000a900460ff16600381111561079f5761079e6111d3565b5b146107df576040517f08c379a00000000000000000000000000000000000000000000000000000000081526004016107d69061139a565b60405180910390fd5b600c5434101580156107f35750600b543411155b80156108405750600b54600e60003373ffffffffffffffffffffffffffffffffffffffff1673ffffffffffffffffffffffffffffffffffffffff1681526020019081526020016000205411155b61084957600080fd5b600554600854111561085a57600080fd5b600654600454111561086b57600080fd5b346004600082825461087d91906113e9565b92505081905550600060035434610894919061144c565b905034600e60003373ffffffffffffffffffffffffffffffffffffffff1673ffffffffffffffffffffffffffffffffffffffff16815260200190815260200160002060008282546108e591906113e9565b9250508190555080600f60003373ffffffffffffffffffffffffffffffffffffffff1673ffffffffffffffffffffffffffffffffffffffff168152602001908152602001600020600082825461093b91906113e9565b92505081905550806008600082825461095491906113e9565b92505081905550600d60009054906101000a900473ffffffffffffffffffffffffffffffffffffffff1673ffffffffffffffffffffffffffffffffffffffff166108fc349081150290604051600060405180830381858888f193505050501580156109c3573d6000803e3d6000fd5b507f1d73dc6f80fb22c8f24b3f13547a56bf93ef34eed5018487085936386c7be8a733826040516109f592919061147d565b60405180910390a150565b600d60009054906101000a900473ffffffffffffffffffffffffffffffffffffffff1681565b3373ffffffffffffffffffffffffffffffffffffffff1660008054906101000a900473ffffffffffffffffffffffffffffffffffffffff1673ffffffffffffffffffffffffffffffffffffffff1614610ab4576040517f08c379a0000000000000000000000000000000000000000000000000000000008152600401610aab906112c2565b60405180910390fd5b8073ffffffffffffffffffffffffffffffffffffffff1660008054906101000a900473ffffffffffffffffffffffffffffffffffffffff1673ffffffffffffffffffffffffffffffffffffffff167fea8258f2d9ddb679928cf34b78cf645b7feda9acc828e4dd82d014eaae270eba60405160405180910390a380600160006101000a81548173ffffffffffffffffffffffffffffffffffffffff021916908373ffffffffffffffffffffffffffffffffffffffff16021790555050565b600260009054906101000a900473ffffffffffffffffffffffffffffffffffffffff1673ffffffffffffffffffffffffffffffffffffffff163373ffffffffffffffffffffffffffffffffffffffff1614610c02576040517f08c379a0000000000000000000000000000000000000000000000000000000008152600401610bf99061132e565b60405180910390fd5b600060095403610c47576040517f08c379a0000000000000000000000000000000000000000000000000000000008152600401610c3e906114f2565b60405180910390fd5b80600954610c5591906113e9565b600a8190555050565b600260009054906101000a900473ffffffffffffffffffffffffffffffffffffffff1681565b600160009054906101000a900473ffffffffffffffffffffffffffffffffffffffff1673ffffffffffffffffffffffffffffffffffffffff163373ffffffffffffffffffffffffffffffffffffffff1614610d14576040517f08c379a0000000000000000000000000000000000000000000000000000000008152600401610d0b90611584565b60405180910390fd5b600160009054906101000a900473ffffffffffffffffffffffffffffffffffffffff1673ffffffffffffffffffffffffffffffffffffffff1660008054906101000a900473ffffffffffffffffffffffffffffffffffffffff1673ffffffffffffffffffffffffffffffffffffffff167faa151555690c956fc3ea32f106bb9f119b5237a061eaa8557cff3e51e3792c8d60405160405180910390a3600160009054906101000a900473ffffffffffffffffffffffffffffffffffffffff166000806101000a81548173ffffffffffffffffffffffffffffffffffffffff021916908373ffffffffffffffffffffffffffffffffffffffff1602179055506000600160006101000a81548173ffffffffffffffffffffffffffffffffffffffff021916908373ffffffffffffffffffffffffffffffffffffffff160217905550565b60095481565b60106020528060005260406000206000915090505481565b600f6020528060005260406000206000915090505481565b600a5481565b60075481565b600c5481565b60008060009054906101000a900473ffffffffffffffffffffffffffffffffffffffff16905090565b600e6020528060005260406000206000915090505481565b60055481565b60045481565b6000600380811115610f0057610eff6111d3565b5b601260009054906101000a900460ff166003811115610f2257610f216111d3565b5b03610f305760039050610f6a565b600954421015610f435760009050610f6a565b6009544210158015610f575750600a544211155b15610f655760019050610f6a565b600290505b90565b601260009054906101000a900460ff1681565b60065481565b600260009054906101000a900473ffffffffffffffffffffffffffffffffffffffff1673ffffffffffffffffffffffffffffffffffffffff163373ffffffffffffffffffffffffffffffffffffffff1614611016576040517f08c379a000000000000000000000000000000000000000000000000000000000815260040161100d9061132e565b60405180910390fd5b6001601260006101000a81548160ff0219169083600381111561103c5761103b6111d3565b5b021790555042600981905550565b60085481565b6000819050919050565b61106381611050565b82525050565b600060208201905061107e600083018461105a565b92915050565b600073ffffffffffffffffffffffffffffffffffffffff82169050919050565b60006110af82611084565b9050919050565b6110bf816110a4565b82525050565b60006020820190506110da60008301846110b6565b92915050565b600080fd5b60006110f082611084565b9050919050565b611100816110e5565b811461110b57600080fd5b50565b60008135905061111d816110f7565b92915050565b600060208284031215611139576111386110e0565b5b60006111478482850161110e565b91505092915050565b61115981611050565b811461116457600080fd5b50565b60008135905061117681611150565b92915050565b600060208284031215611192576111916110e0565b5b60006111a084828501611167565b91505092915050565b6111b2816110e5565b82525050565b60006020820190506111cd60008301846111a9565b92915050565b7f4e487b7100000000000000000000000000000000000000000000000000000000600052602160045260246000fd5b60048110611213576112126111d3565b5b50565b600081905061122482611202565b919050565b600061123482611216565b9050919050565b61124481611229565b82525050565b600060208201905061125f600083018461123b565b92915050565b600082825260208201905092915050565b7f4f776e61626c653a2063616c6c6572206973206e6f7420746865206f776e6572600082015250565b60006112ac602083611265565b91506112b782611276565b602082019050919050565b600060208201905081810360008301526112db8161129f565b9050919050565b7f4f6e6c792041646d696e2043616e2043616c6c00000000000000000000000000600082015250565b6000611318601383611265565b9150611323826112e2565b602082019050919050565b600060208201905081810360008301526113478161130b565b9050919050565b7f536565642053616c65206e6f742072756e6e696e67206e6f7700000000000000600082015250565b6000611384601983611265565b915061138f8261134e565b602082019050919050565b600060208201905081810360008301526113b381611377565b9050919050565b7f4e487b7100000000000000000000000000000000000000000000000000000000600052601160045260246000fd5b60006113f482611050565b91506113ff83611050565b9250828201905080821115611417576114166113ba565b5b92915050565b7f4e487b7100000000000000000000000000000000000000000000000000000000600052601260045260246000fd5b600061145782611050565b915061146283611050565b9250826114725761147161141d565b5b828204905092915050565b600060408201905061149260008301856111a9565b61149f602083018461105a565b9392505050565b7f536565642073616c65206e6f7420737461727465640000000000000000000000600082015250565b60006114dc601583611265565b91506114e7826114a6565b602082019050919050565b6000602082019050818103600083015261150b816114cf565b9050919050565b7f4f776e61626c653a206d757374206265206e6577206f776e657220746f20707560008201527f6c6c000000000000000000000000000000000000000000000000000000000000602082015250565b600061156e602283611265565b915061157982611512565b604082019050919050565b6000602082019050818103600083015261159d81611561565b905091905056fea2646970667358221220730956ddf6283bc5cf674ce4c62f0a174950087b3d94e5f7d6e3f9960c2b2c8364736f6c63430008110033",
  "linkReferences": {},
  "deployedLinkReferences": {}
}